:10F0000031400006B240805A20013F4006000F9375
:10F0100005242F839F4FF6F20002FB233F4081031C
:10F020000F9304241F83CF430602FC233040AAF031
:10F03000304034F000130F120E120D120C12C29356
:10F0400000020824C2430002925302021F4202023D
:10F05000B012EAF13C413D413E413F41B1C0F000B8
:10F06000000000130F120E120D120C12D25386055F
:10F07000F2B0400086050F24F2F03F008605D24230
:10F08000040219005F420402B01242F25F53B01250
:10F0900036F2C24F040292C360013C413D413E4101
:10F0A0003F41B1C0F0000000001331400006B24003
:10F0B000805A2001C2432100C2432900C2432200DA
:10F0C000C2432A00F2431A00C2432400C2432C0068
:10F0D000C2432500C2432D00B240185A200182438A
:10F0E0007001B24022026001D2D3000032D23F4010
:10F0F0000602B012D2F23E40C6033F400602B012F2
:10F10000E2F23B40E8033F400602B01266F23B5396
:10F11000FA233B40E8033F40C603B01266F23B537C
:10F12000FA233E40C6033F400602B012B2F20F93EC
:10F130000224D25300023B40E8033F400602B012D3
:10F1400066F23B53FA23E53F3040F4F2930092001D
:10F150009100900000004400000000409CF000007E
:10F1600000020000FC60DAF266B6BEE0FEF60000C7
:10F17000001200CA00EE3E9C7A9E8EBC6E60780043
:10F180001C6E2AFCCE000AB61E7C00000076000031
:10F190000000000000FA3E1A7ADE8EBC2E207800B5
:10F1A0001C002A3ACE000AB61E3800000076000085
:10F1B0000B120A1209120D4E0C434B4F39404CF101
:10F1C0003A4054F10F4C0F5F0F592E4F0F4D0F5B0C
:10F1D0006F4F0F5ADE4FE0FF00001C531D532C925F
:10F1E000F13B39413A413B4130410B120A120D4F7C
:10F1F0003B404CF10C433A4054F10F4D8F104E4FB1
:10F2000012C30E100E110E110E113EF00F000D5D07
:10F210000D5D0D5D0D5D3E900A0002283E50070019
:10F220003F4B0E5ADF4E100000001C532C92E52B72
:10F230003A413B4130414E4F12C34E104EEF4F4EBC
:10F2400030414E4F12C34F104FEE4E4F12C34E106F
:10F250004E114FEE4E4F12C34E104E114E114E1125
:10F260004FEE7FF330410B120A120A4F0B4F1B5324
:10F270000C4B0E4F3E503F003D4080016F4F6F5C86
:10F28000CE4F00001C530F4B1E533D5303240B4F16
:10F290001B53F43F0E4A0F4A3F5080013D403F0050
:10F2A000EE4F00001F531E533D53FA233A413B419A
:10F2B00030410B120B4F0C4E3D40C0003E4C3F4BBB
:10F2C0000F9E04203D53FA231F43013C0F433B4153
:10F2D00030413E40C000DFD300001F533E53FB23AC
:10F2E00030413D40C000EE4F00001F531E533D53C0
:06F2F000FA233041FF3F4C
:06F2F6000100FFFF000013
:10FFE00030F030F030F030F030F030F030F030F011
:10FFF00064F030F036F030F030F030F030F000F0F7
:040000030000F00009
:00000001FF
